:100000000C9435000C945D000C945D000C945D0024
:100010000C945D000C945D000C945D000C945D00EC
:100020000C945D000C945D000C945D000C945D00DC
:100030000C945D000C945D000C945D000C945D00CC
:100040000C94C40A0C945D000C941D090C944B098B
:100050000C945D000C945D000C945D000C945D00AC
:100060000C945D000C945D00C40911241FBECFEFF9
:10007000D8E0DEBFCDBF11E0A0E0B1E0E2E6F8E1FC
:1000800002C005900D92A439B107D9F722E0A4E986
:10009000B1E001C01D92AD36B207E1F710E0C5E353
:1000A000D0E004C02197FE010E94120CC433D10796
:1000B000C9F70E94B10A0C942F0C0C940000CF9346
:1000C000DF9300D000D000D0CDB7DEB79A8389830C
:1000D0004B835C836D837E838B819C81AD81BE81EC
:1000E000E981FA8126E0AC01BD01CF010E948005C3
:1000F00026960FB6F894DEBF0FBECDBFDF91CF912D
:100100000895CF93DF9300D0CDB7DEB79A8389836C
:1001100081E00F900F90DF91CF910895CF93DF93FF
:10012000CDB7DEB766E071E087EC91E00E947A0A15
:10013000DF91CF910895CF93DF93CDB7DEB76EE116
:1001400071E087EC91E00E947A0A88EE93E00E94C9
:10015000100463E271E087EC91E00E947A0A88EE75
:1001600093E00E94100468E271E087EC91E00E9445
:100170007A0A88EE93E00E9410046DE271E087EC49
:1001800091E00E947A0A87EC91E00E94F4064EE822
:1001900050E060E177E280E090E00E942002DF9191
:1001A000CF910895CF93DF93CDB7DEB70E949B0028
:1001B00066E371E087EC91E00E947A0A84E690E0C1
:1001C0000E941004DF91CF910895CF93DF93CDB7B4
:1001D000DEB76DE371E087EC91E00E947A0A6EE68B
:1001E00070E08BE990E00E94470486E990E00E946D
:1001F00010046DE770E082ED90E00E944704E9CFC3
:10020000CF93DF93CDB7DEB740E855E260E070E012
:1002100087EC91E00E945F00000087EC91E00E9473
:100220008100982F81E089278823B9F76BE471E07A
:1002300087EC91E00E947A0A0E94E9046DE471E083
:1002400087EC91E00E947A0ADF91CF910895CF93D5
:10025000DF93CDB7DEB761E571E087EC91E00E94F6
:100260007A0A68EC70E085EE90E00E94470463E54E
:1002700071E087EC91E00E947A0A61E571E087EC19
:1002800091E00E947A0A0E94D801FDCFCF93DF93BC
:10029000CDB7DEB7F89481E0DF91CF910895CF9389
:1002A000DF9300D0CDB7DEB79A8389838FE590E0E6
:1002B00029813A81F9012081FC0120830F900F9060
:1002C000DF91CF910895EF92FF920F931F93CF93F9
:1002D000DF9300D000D000D0CDB7DEB79E838D83F2
:1002E0000E94360BDC01CB0189839A83AB83BC83EC
:1002F0008D819E81FC0182819381A481B581892BAE
:100300008A2B8B2BD1F08D819E81FC012281338140
:100310004481558189819A81AB81BC8179018A01AF
:10032000E81AF90A0A0B1B0BD801C701813A95415B
:10033000AF4FBF4F10F081E001C080E026960FB6AE
:10034000F894DEBF0FBECDBFDF91CF911F910F910B
:10035000FF90EF900895CF93DF931F92CDB7DEB754
:1003600019821AC08981282F30E0C901880F991F8E
:10037000820F931F880F991F85559E4FFC01808126
:100380009181A281B381892B8A2B8B2B11F48981D6
:100390000BC089818F5F89838981853018F381E063
:1003A00090E00E941004DCCF0F90DF91CF91089570
:1003B000CF93DF931F92CDB7DEB719823AC0898100
:1003C000282F30E0C901880F991F820F931F880FD3
:1003D000991F87559E4F0E946301982F81E09923B2
:1003E00009F480E0882311F18981282F30E0C901C8
:1003F000880F991F820F931F880F991F85559E4F55
:10040000FC0110821182128213828981282F30E030
:10041000C901880F991F820F931F880F991F875555
:100420009E4FFC0180819181FC01099589818F5F3C
:1004300089838981853018F20F90DF91CF910895DB
:100440000F931F93CF93DF93CDB7DEB727970FB6E8
:10045000F894DEBF0FBECDBF6A837B838C839D8300
:100460005F834E830E94AB0189838981082F10E04E
:100470000E94360B9B01AC018A819B81AC81BD81BE
:10048000280F391F4A1F5B1FC801880F991F800F53
:10049000911F880F991F85559E4FFC012083318342
:1004A000428353838981282F30E0C901880F991F27
:1004B000820F931F880F991F87559E4F2E813F8172
:1004C000FC013183208327960FB6F894DEBF0FBE60
:1004D000CDBFDF91CF911F910F910895CF93DF93FF
:1004E00000D0CDB7DEB78A838A818F5F8983898107
:1004F000882F90E0880F991F880F991F89569E4F6B
:10050000FC0180819181892B19F08981853010F05F
:1005100081E001C080E0882311F080E001C0898182
:100520000F900F90DF91CF910895CF93DF9300D07C
:1005300000D0CDB7DEB78C838C818F5F89838C81AF
:10054000882F90E0880F991F880F991F89569E4F1A
:10055000FC01208131818C81882F90E00197880FE8
:10056000991F880F991F89569E4FFC0180819181A8
:10057000A901481B590BCA019B838A8381C08981C9
:10058000882F90E0880F991F880F991F89569E4FDA
:10059000FC01208131818981882F90E0880F991F8B
:1005A000880F991F8B569E4FFC0180819181A90174
:1005B000481B590BCA01AC014F5F5F4F8981882FDF
:1005C00090E0880F991F880F991F8B569E4FFC0152
:1005D00080819181BC018981882F90E0880F991FCB
:1005E000880F991F8B569E4FFC01208131818A8193
:1005F0009B81F901E81BF90BCF010E941D0C898139
:10060000882F90E001972981222F30E0220F331F9D
:10061000220F331F2B563E4FF901408151812A8111
:100620003B81BA01621B730B9B01880F991F880FD6
:10063000991F8B569E4FFC01318320838981882F1F
:1006400090E001972981222F30E0220F331F220FE3
:10065000331F29563E4FF901408151812A813B8148
:10066000BA01621B730B9B01880F991F880F991F9A
:1006700089569E4FFC013183208389818F5F898356
:100680008981853080F48981882F90E0880F991FB7
:10069000880F991F89569E4FFC0180819181892B7B
:1006A00011F081E001C080E0882309F068CF8981E2
:1006B000882F90E00197880F991F880F991F8956FE
:1006C0009E4FFC01118210820F900F900F900F909F
:1006D000DF91CF910895CF93DF9300D000D000D069
:1006E000CDB7DEB78D836E832F923F924F925F928C
:1006F0006F927F928F929F92AF92BF92CF92DF9232
:10070000EF92FF920F931F93CF93DF9390919401F9
:1007100081E09F3F09F080E08823F1F08FE590E0D1
:10072000FC0180818B830E94460189830AC08DE58C
:1007300090E02091950130919601FC013183208356
:1007400019828981882399F7CE0103960E944F016F
:100750008D810E94950233C08D81882F90E02DE518
:1007600030E0F90120813181880F991F880F991F8E
:100770008B569E4FFC01318320838FE590E0FC0176
:1007800080818C830E9446018A8312C08DE590E0AF
:100790002E81222F30E0220F331F220F331F2B56C2
:1007A0003E4FF90120813181FC01318320831A827F
:1007B0008A81882359F7CE0104960E944F018E81C9
:1007C00080939401DF91CF911F910F91FF90EF9053
:1007D000DF90CF90BF90AF909F908F907F906F9061
:1007E0005F904F903F902F9026960FB6F894DEBF03
:1007F0000FBECDBFDF91CF910895CF93DF931F92AE
:10080000CDB7DEB7809194010E946E0289838091FA
:10081000940169810E946B030F90DF91CF9108953D
:10082000CF93DF9300D000D000D0CDB7DEB79E834A
:100830008D830E94360BDC01CB0189839A83AB83C5
:10084000BC8302C00E94FD030E94360B9B01AC01D9
:1008500089819A81AB81BC81281B390B4A0B5B0BC8
:100860008D819E81CC01A0E0B0E061E028173907BE
:100870004A075B0708F060E0662321F726960FB66B
:10088000F894DEBF0FBECDBFDF91CF910895CF9317
:10089000DF93CDB7DEB72A970FB6F894DEBF0FBE51
:1008A000CDBF98878F837A87698702C00E94FD0336
:1008B0008091A7019091A80121E0892B09F420E003
:1008C0002223A1F781E08D8303C08D818F5F8D830B
:1008D0008D81882F90E0880F991F880F991F895666
:1008E0009E4FFC018081918121E0892B09F420E059
:1008F000222359F78D81882F90E00197880F991F47
:10090000880F991F89569E4FFC012081318189856E
:100910009A85820F931F9B838A8390919401809183
:100920009401692F0E946B038D81882F90E0880FBE
:10093000991F880F991F89569E4FFC0180819181D4
:1009400021E0892B09F020E02223D1F18FE590E00E
:10095000FC0180818E830E944601898308C08DE559
:1009600090E02A813B81FC013183208319828981B7
:100970008823A9F7CE0106960E944F018D81882F0A
:1009800090E0880F991F880F991F89569E4F2A81E2
:100990003B81FC0131832083909194018D81692FEB
:1009A0000E946B038F819885FC01099580919401C9
:1009B0008C838FEF8093940160E08C810E946B03A5
:1009C0002A960FB6F894DEBF0FBECDBFDF91CF9150
:1009D0000895CF93DF93CDB7DEB78DE590E0FC01AE
:1009E000808191819093960180939501809102017D
:1009F000909103019093980180939701DF91CF919B
:100A00000895CF93DF93CDB7DEB789E799E0892BBF
:100A100051F080E090E0892B31F00E947909882321
:100A200011F081E001C080E0882311F00E940000F5
:100A3000DF91CF910895CF93DF9300D01F92CDB770
:100A4000DEB79B838A838A819B81FC01848D882FFA
:100A500090E02A813B81820F931F835A9F4FFC01B4
:100A6000808189838A819B81FC01848D882F90E01D
:100A700001968F739078992324F40197806C9F6F6F
:100A80000196282F8A819B81FC01248F8A819B817A
:100A9000FC01868997892981FC0120838A819B81B9
:100AA000FC01808991892A813B81F9012089318962
:100AB000F90120812064FC0120838A819B81FC0153
:100AC000238D8A819B81FC01948D81E0291709F097
:100AD00080E0882379F08A819B81FC018289938957
:100AE0002A813B81F90122893389F90120812F7DF7
:100AF000FC0120830F900F900F90DF91CF9108950C
:100B0000CF93DF93CDB7DEB761970FB6F894DEBF12
:100B10000FBECDBF9C838B834D835E836F837887AD
:100B2000298780E894E8AEE1B0E02D813E814F81D5
:100B30005885BC01CD010E94F00BDA01C901019773
:100B4000A109B109B695A795979587959A83898349
:100B50008B819C81FC018089918922E0FC012083AA
:100B600089819A8181159041F0F08B819C81FC01F3
:100B700080899189FC01108280E492E4AFE0B0E0CA
:100B80002D813E814F815885BC01CD010E94F00B23
:100B9000DA01C9010197A109B109B695A795979501
:100BA00087959A8389838B819C81FC0184859585B7
:100BB00029813A81232F3327FC0120838B819C815B
:100BC000FC01868597852981FC0120838B819C818E
:100BD000FC01108E8B819C81FC018489958929857B
:100BE000FC0120838B819C81FC01828993892B816C
:100BF0003C81F90122893389F90120812061FC01BE
:100C000020838B819C81FC01828993892B813C818B
:100C1000F90122893389F90120812860FC012083B0
:100C20008B819C81FC01828993892B813C81F90114
:100C300022893389F90120812068FC0120838B817E
:100C40009C81FC01828993892B813C81F901228955
:100C50003389F90120812F7DFC01208361960FB635
:100C6000F894DEBF0FBECDBFDF91CF910895CF9333
:100C7000DF9300D0CDB7DEB79A83898389819A81CB
:100C8000FC01818D882F90E09C01205C3F4F898181
:100C90009A81FC01828D882F90E0A901481B590B95
:100CA000CA018F7399270F900F90DF91CF9108950C
:100CB000CF93DF9300D0CDB7DEB79A838983898144
:100CC0009A81FC01218D89819A81FC01928D81E0BC
:100CD000291709F080E0882319F08FEF9FEF0FC0EC
:100CE00089819A81FC01828D882F90E029813A8147
:100CF000820F931F4D96FC018081882F90E00F900A
:100D00000F90DF91CF910895CF93DF9300D01F9282
:100D1000CDB7DEB79B838A838A819B81FC01218DBD
:100D20008A819B81FC01928D81E0291709F080E086
:100D3000882319F08FEF9FEF1CC08A819B81FC01F3
:100D4000828D882F90E02A813B81820F931F4D96E0
:100D5000FC01808189838A819B81FC01828D8F5F68
:100D6000282F2F738A819B81FC01228F8981882FF4
:100D700090E00F900F900F90DF91CF910895CF9357
:100D8000DF9300D000D0CDB7DEB79C838B838B81FF
:100D90009C81FC01838D89838B819C81FC01848DE6
:100DA0008A8399818A81981768F08981882F90E0D9
:100DB0002FE330E0281B390B8A81882F90E0820FC7
:100DC000931F0BC08A81282F30E08981882F90E003
:100DD000A901481B590BCA0101970F900F900F9062
:100DE0000F90DF91CF910895CF93DF9300D0CDB7CF
:100DF000DEB79A83898389819A81FC01908D81E095
:100E00008927882309F04EC02DC08FE590E0FC01B2
:100E1000808188237CF089819A81FC018289938971
:100E2000FC018081882F90E080729927892B11F036
:100E300081E001C080E08823A9F089819A81FC01CA
:100E400080899189FC018081882F90E080729927A8
:100E500021E0892B09F420E0222321F089819A8165
:100E60000E941B0589819A81FC0182899389FC017A
:100E70008081882F90E080729927892B69F489817D
:100E80009A81FC0180899189FC018081882F90E002
:100E900080749927892B11F481E001C080E08823B8
:100EA00009F0B3CF0F900F90DF91CF910895CF93BA
:100EB000DF9300D000D0CDB7DEB79B838A836C83ED
:100EC0008A819B8121E0FC01208F8A819B81FC012A
:100ED000238D8A819B81FC01848D281779F48A8176
:100EE0009B81FC0180899189FC018081882F90E0A1
:100EF00080729927892B11F081E001C080E088235E
:100F0000D1F08A819B81FC01868997892C81FC0123
:100F100020838A819B81FC01808991892A813B8180
:100F2000F90120893189F90120812064FC012083A5
:100F300081E090E060C08A819B81FC01838D882FD5
:100F400090E001968F739078992324F40197806C38
:100F50009F6F019689831FC08FE590E0FC0180811F
:100F60008095881F8827881F8823A9F08A819B8104
:100F7000FC0180899189FC018081882F90E080723A
:100F8000992721E0892B09F420E0222321F08A818E
:100F90009B810E941B058A819B81FC01248D81E03D
:100FA0009981291709F080E08823B1F68A819B8115
:100FB000FC01838D882F90E02A813B81820F931F53
:100FC000835A9F4F2C81FC0120838A819B81298138
:100FD000FC01238F8A819B81FC01828993892A816C
:100FE0003B81F90122893389F90120812062FC01CA
:100FF000208381E090E00F900F900F900F90DF9191
:10100000CF910895CF93DF9300D0CDB7DEB79A8309
:10101000898389819A812CE831E0FC013183208326
:1010200089819A81FC01138212820F900F90DF91C7
:10103000CF910895CF93DF9300D0CDB7DEB79A83D9
:10104000898380E090E00F900F90DF91CF91089519
:10105000CF93DF9300D0CDB7DEB79A8389830F900B
:101060000F90DF91CF910895CF93DF9300D0CDB74C
:10107000DEB79A83898389819A810E9402088981D7
:101080009A812AE731E0FC013183208329813A816A
:1010900088EE93E0A0E0B0E0F90184839583A68315
:1010A000B7830F900F90DF91CF910895CF92DF9289
:1010B000EF92FF920F931F93CF93DF93CDB7DEB7DD
:1010C0002E970FB6F894DEBF0FBECDBF9A838983EB
:1010D0007C836B835E834D8338872F831A870987D0
:1010E000FC86EB86DE86CD8689819A810E94340853
:1010F00089819A8128E631E0FC013183208389814E
:101100009A812B813C81FC013587248789819A81D2
:101110002D813E81FC013787268789819A812F8125
:101120003885FC01318B208B89819A8129853A850C
:10113000FC01338B228B89819A812B853C85FC01B4
:10114000358B248B89819A812D853E85FC01378BD7
:10115000268B89819A81FC01118E89819A81FC01FB
:10116000128E89819A81FC01138E89819A81FC01FA
:10117000148E2E960FB6F894DEBF0FBECDBFDF9152
:10118000CF911F910F91FF90EF90DF90CF90089536
:10119000CF93DF9300D000D0CDB7DEB79C838B8395
:1011A0008B819C81FC0180899189FC018081882F41
:1011B00090E08470992721E0892B09F020E0222318
:1011C00071F18B819C81FC0186899789FC0180816A
:1011D00089838B819C81FC01818D8F5F8F738A83D2
:1011E0008B819C81FC01228D81E09A81291709F471
:1011F00080E0882399F08B819C81FC01818D882F70
:1012000090E02B813C81820F931F4D962981FC0138
:1012100020838B819C812A81FC01218F07C08B81D7
:101220009C81FC0186899789FC0180810F900F9039
:101230000F900F90DF91CF9108951F920F92009021
:101240005F000F9211242F933F934F935F936F93FF
:101250007F938F939F93AF93BF93EF93FF93CF931E
:10126000DF93CDB7DEB787EC91E00E94C808DF912D
:10127000CF91FF91EF91BF91AF919F918F917F910E
:101280006F915F914F913F912F910F9000925F006E
:101290000F901F9018951F920F9200905F000F9271
:1012A00011242F933F934F935F936F937F938F936B
:1012B0009F93AF93BF93EF93FF93CF93DF93CDB7FC
:1012C000DEB787EC91E00E941B05DF91CF91FF9183
:1012D000EF91BF91AF919F918F917F916F915F91AE
:1012E0004F913F912F910F9000925F000F901F90B0
:1012F0001895CF93DF93CDB7DEB787EC91E00E94CE
:10130000370621E0892B09F420E0822FDF91CF916D
:101310000895CF92DF92EF92FF920F931F93CF9396
:10132000DF9300D000D0CDB7DEB79A8389837C836A
:101330006B8389819A810197D1F48B819C8101967D
:10134000B1F40F2EF6ECCF2ED12CF02D0F2EF2ECA7
:10135000EF2EF12CF02D01EC10E020EC30E044EC0D
:1013600050E065EC70E087EC91E00E9456080F9029
:101370000F900F900F90DF91CF911F910F91FF90E1
:10138000EF90DF90CF900895CF93DF93CDB7DEB786
:101390006FEF7FEF81E090E00E948909DF91CF91AC
:1013A00008950F931F93CF93DF9300D000D0CDB754
:1013B000DEB79A8389837C836B838B819C81892BA5
:1013C00019F480E090E015C089819A81FC01808148
:1013D00091810296FC01008111818B819C810E9488
:1013E000260CAC012B813C8189819A81B901F801DD
:1013F00009950F900F900F900F90DF91CF911F9153
:101400000F910895CF93DF93CDB7DEB728970FB62E
:10141000F894DEBF0FBECDBF9C838B837E836D832C
:1014200058874F831A82198223C08B819C81FC01CB
:1014300080819181FC01208131818D819E81AC016F
:101440004F5F5F4F5E834D83FC0140818B819C81A8
:10145000642FF901099521E0892B09F420E022236A
:1014600031F089819A8101969A83898301C00DC0E8
:101470008F8198859C012150310938872F8321E085
:10148000892B09F420E0222381F689819A8128960C
:101490000FB6F894DEBF0FBECDBFDF91CF91089598
:1014A000CF93DF9300D000D0CDB7DEB79A83898386
:1014B0007C836B832B813C8189819A81B9010E9455
:1014C000D1090F900F900F900F90DF91CF91089559
:1014D000CF93DF9300D0CDB7DEB79A83898389811C
:1014E0009A8165E571E00E94D1090F900F90DF911C
:1014F000CF910895CF93DF9300D000D000D0CDB727
:10150000DEB79C838B837E836D832D813E818B81AF
:101510009C81B9010E94500A9A8389838B819C81A6
:101520000E94680A9C0189819A81820F931F9A8385
:10153000898389819A8126960FB6F894DEBF0FBE03
:10154000CDBFDF91CF910895CF93DF93CDB7DEB7B5
:101550000E94180CCF93DF93CDB7DEB7DF91CF9108
:101560000895CF93DF93CDB7DEB70E94620B0E9440
:10157000AA0A0E9400010E94270181E095E0892BC0
:1015800011F00E940105F7CF1F920F9200905F00AB
:101590000F9211248F939F93AF93BF93CF93DF93B9
:1015A000CDB7DEB72597DEBFCDBF809168029091A1
:1015B0006902A0916A02B0916B0289839A83AB831E
:1015C000BC8380916C028D8389819A81AB81BC81BF
:1015D0000296A11DB11D89839A83AB83BC838D8143
:1015E0008A5F8D838D818D3770F08D818D578D83CE
:1015F00089819A81AB81BC810196A11DB11D89832E
:101600009A83AB83BC838D8180936C0289819A819C
:10161000AB81BC818093680290936902A0936A02B7
:10162000B0936B028091640290916502A091660272
:10163000B09167020196A11DB11D80936402909341
:101640006502A0936602B09367020F900F900F900F
:101650000F900F90DF91CF91BF91AF919F918F919C
:101660000F9000925F000F901F901895CF93DF931B
:1016700000D000D01F92CDB7DEB78FE590E0FC011F
:1016800080818983F8948091680290916902A09189
:101690006A02B0916B028A839B83AC83BD838FE522
:1016A00090E02981FC0120838A819B81AC81BD81EE
:1016B000BC01CD010F900F900F900F900F90DF9114
:1016C000CF910895CF93DF93CDB7DEB7789484E4BC
:1016D00090E024E430E0F90120812260FC012083C5
:1016E00084E490E024E430E0F90120812160FC01F1
:1016F000208385E490E025E430E0F9012081226038
:10170000FC01208385E490E025E430E0F9012081AC
:101710002160FC0120838EE690E02EE630E0F901A6
:1017200020812160FC01208381E890E0FC0110828F
:1017300081E890E021E830E0F90120812260FC019D
:10174000208381E890E021E830E0F90120812160E8
:10175000FC01208380E890E020E830E0F90120815E
:101760002160FC01208381EB90E021EB30E0F90166
:1017700020812460FC01208380EB90E020EB30E0AE
:10178000F90120812160FC0120838AE790E02AE7AB
:1017900030E0F90120812460FC0120838AE790E099
:1017A0002AE730E0F90120812260FC0120838AE7EA
:1017B00090E02AE730E0F90120812E7FFC012083B0
:1017C0008AE790E02AE730E0F90120812068FC01F7
:1017D000208381EC90E0FC011082DF91CF9108958D
:1017E000A1E21A2EAA1BBB1BFD010DC0AA1FBB1F25
:1017F000EE1FFF1FA217B307E407F50720F0A21B97
:10180000B30BE40BF50B661F771F881F991F1A9403
:1018100069F760957095809590959B01AC01BD012D
:10182000CF010895EE0FFF1F0590F491E02D09946C
:1018300081E090E0F8940C942F0CFB01DC0102C0D5
:1018400001900D9241505040D8F70895FC0101904D
:101850000020E9F7809590958E0F9F1F0895F894CA
:02186000FFCFB8
:1018620000006D02800073706C617368646F776E44
:1018720020313020736563206C61746572002E2EF6
:101882002E33002E2E2E32002E2E2E3100424C41AF
:1018920053544F464600424F4E555321004C6175FA
:1018A2006E636820726F636B6574002A002E7A7A09
:1018B2000078002E000D0A006E616E00696E6600EF
:1018C2006F766600000000005707020ABF06F406A2
:1018D20037068406580600000000A40A020A1A0805
:1018E2002808A40AA40AA40A00000000A40A020A02
:0418F2001A082808A0
:00000001FF
